{
  "_format": "hh-sol-artifact-1",
  "contractName": "DemoPetStroker",
  "sourceName": "contracts/DemoPetStroker.sol",
  "abi": [
    {
      "anonymous": false,
      "inputs": [
        {
          "indexed": false,
          "internalType": "address",
          "name": "sender",
          "type": "address"
        },
        {
          "indexed": false,
          "internalType": "uint24",
          "name": "countPetStrokes",
          "type": "uint24"
        }
      ],
      "name": "PetJustStroked",
      "type": "event"
    },
    {
      "inputs": [],
      "name": "countPetStrokes",
      "outputs": [
        {
          "internalType": "uint24",
          "name": "",
          "type": "uint24"
        }
      ],
      "stateMutability": "view",
      "type": "function"
    },
    {
      "inputs": [],
      "name": "strokeThePet",
      "outputs": [],
      "stateMutability": "nonpayable",
      "type": "function"
    }
  ],
  "bytecode": "0x60806040526000805462ffffff1916905534801561001c57600080fd5b5061014c8061002c6000396000f3fe608060405234801561001057600080fd5b50600436106100365760003560e01c80635934521e1461003b578063fa871bac14610062575b600080fd5b60005461004a9062ffffff1681565b60405162ffffff909116815260200160405180910390f35b61006a61006c565b005b6000805460019190819061008690849062ffffff166100e3565b82546101009290920a62ffffff818102199093169183160217909155600054604080513381529190921660208201527f651e818350821aa9de407b5da045244607a7ba2ab80bb1f31c78d5999db6fc7492500160405180910390a1565b600062ffffff80831681851680830382111561010d57634e487b7160e01b84526011600452602484fd5b0194935050505056fea26469706673582212202c9b2875c4c2aa985dcd3d040f2f28b635a2db86543bb0802e3085fb9d30804e64736f6c63430008040033",
  "linkReferences": {},
  "deployedLinkReferences": {}
}