{
  "contracts/DemoPetStroker.sol": {
    "DemoPetStroker": {
      "abi": [
        {
          "anonymous": false,
          "inputs": [
            {
              "indexed": false,
              "internalType": "address",
              "name": "sender",
              "type": "address"
            },
            {
              "indexed": false,
              "internalType": "uint24",
              "name": "countPetStrokes",
              "type": "uint24"
            }
          ],
          "name": "PetJustStroked",
          "type": "event"
        },
        {
          "inputs": [],
          "name": "countPetStrokes",
          "outputs": [
            {
              "internalType": "uint24",
              "name": "",
              "type": "uint24"
            }
          ],
          "stateMutability": "view",
          "type": "function"
        },
        {
          "inputs": [],
          "name": "strokeThePet",
          "outputs": [],
          "stateMutability": "nonpayable",
          "type": "function"
        }
      ],
      "devdoc": {
        "kind": "dev",
        "methods": {},
        "version": 1
      },
      "evm": {
        "bytecode": {
          "linkReferences": {},
          "object": "60806040526000805462ffffff1916905534801561001c57600080fd5b5061014c8061002c6000396000f3fe608060405234801561001057600080fd5b50600436106100365760003560e01c80635934521e1461003b578063fa871bac14610062575b600080fd5b60005461004a9062ffffff1681565b60405162ffffff909116815260200160405180910390f35b61006a61006c565b005b6000805460019190819061008690849062ffffff166100e3565b82546101009290920a62ffffff818102199093169183160217909155600054604080513381529190921660208201527f651e818350821aa9de407b5da045244607a7ba2ab80bb1f31c78d5999db6fc7492500160405180910390a1565b600062ffffff80831681851680830382111561010d57634e487b7160e01b84526011600452602484fd5b0194935050505056fea26469706673582212202c9b2875c4c2aa985dcd3d040f2f28b635a2db86543bb0802e3085fb9d30804e64736f6c63430008040033",
          "opcodes": "PUSH1 0x80 PUSH1 0x40 MSTORE PUSH1 0x0 DUP1 SLOAD PUSH3 0xFFFFFF NOT AND SWAP1 SSTORE CALLVALUE DUP1 ISZERO PUSH2 0x1C JUMPI PUSH1 0x0 DUP1 REVERT JUMPDEST POP PUSH2 0x14C DUP1 PUSH2 0x2C PUSH1 0x0 CODECOPY PUSH1 0x0 RETURN INVALID PUSH1 0x80 PUSH1 0x40 MSTORE CALLVALUE DUP1 ISZERO PUSH2 0x10 JUMPI PUSH1 0x0 DUP1 REVERT JUMPDEST POP PUSH1 0x4 CALLDATASIZE LT PUSH2 0x36 JUMPI PUSH1 0x0 CALLDATALOAD PUSH1 0xE0 SHR DUP1 PUSH4 0x5934521E EQ PUSH2 0x3B JUMPI DUP1 PUSH4 0xFA871BAC EQ PUSH2 0x62 JUMPI JUMPDEST PUSH1 0x0 DUP1 REVERT JUMPDEST PUSH1 0x0 SLOAD PUSH2 0x4A SWAP1 PUSH3 0xFFFFFF AND DUP2 JUMP JUMPDEST PUSH1 0x40 MLOAD PUSH3 0xFFFFFF SWAP1 SWAP2 AND DUP2 MSTORE PUSH1 0x20 ADD PUSH1 0x40 MLOAD DUP1 SWAP2 SUB SWAP1 RETURN JUMPDEST PUSH2 0x6A PUSH2 0x6C JUMP JUMPDEST STOP JUMPDEST PUSH1 0x0 DUP1 SLOAD PUSH1 0x1 SWAP2 SWAP1 DUP2 SWAP1 PUSH2 0x86 SWAP1 DUP5 SWAP1 PUSH3 0xFFFFFF AND PUSH2 0xE3 JUMP JUMPDEST DUP3 SLOAD PUSH2 0x100 SWAP3 SWAP1 SWAP3 EXP PUSH3 0xFFFFFF DUP2 DUP2 MUL NOT SWAP1 SWAP4 AND SWAP2 DUP4 AND MUL OR SWAP1 SWAP2 SSTORE PUSH1 0x0 SLOAD PUSH1 0x40 DUP1 MLOAD CALLER DUP2 MSTORE SWAP2 SWAP1 SWAP3 AND PUSH1 0x20 DUP3 ADD MSTORE PUSH32 0x651E818350821AA9DE407B5DA045244607A7BA2AB80BB1F31C78D5999DB6FC74 SWAP3 POP ADD PUSH1 0x40 MLOAD DUP1 SWAP2 SUB SWAP1 LOG1 JUMP JUMPDEST PUSH1 0x0 PUSH3 0xFFFFFF DUP1 DUP4 AND DUP2 DUP6 AND DUP1 DUP4 SUB DUP3 GT ISZERO PUSH2 0x10D JUMPI PUSH4 0x4E487B71 PUSH1 0xE0 SHL DUP5 MSTORE PUSH1 0x11 PUSH1 0x4 MSTORE PUSH1 0x24 DUP5 REVERT JUMPDEST ADD SWAP5 SWAP4 POP POP POP POP JUMP INVALID LOG2 PUSH5 0x6970667358 0x22 SLT KECCAK256 0x2C SWAP12 0x28 PUSH22 0xC4C2AA985DCD3D040F2F28B635A2DB86543BB0802E30 DUP6 0xFB SWAP14 ADDRESS DUP1 0x4E PUSH5 0x736F6C6343 STOP ADDMOD DIV STOP CALLER "
        },
        "gasEstimates": {
          "creation": {
            "codeDepositCost": "66400",
            "executionCost": "20935",
            "totalCost": "87335"
          },
          "external": {
            "countPetStrokes()": "979",
            "strokeThePet()": "24095"
          }
        },
        "methodIdentifiers": {
          "countPetStrokes()": "5934521e",
          "strokeThePet()": "fa871bac"
        }
      },
      "storageLayout": {
        "storage": [
          {
            "astId": 10,
            "contract": "contracts/DemoPetStroker.sol:DemoPetStroker",
            "label": "countPetStrokes",
            "offset": 0,
            "slot": "0",
            "type": "t_uint24"
          }
        ],
        "types": {
          "t_uint24": {
            "encoding": "inplace",
            "label": "uint24",
            "numberOfBytes": "3"
          }
        }
      },
      "userdoc": {
        "kind": "user",
        "methods": {},
        "version": 1
      }
    }
  }
}